:100000000C94BE000C94D0000C94D0000C94D00042
:100010000C94D0000C94D0000C94D0000C94D00020
:100020000C94D0000C94D0000C94D0000C94D00010
:100030000C94D0000C941A050C94D0000C94D000B1
:100040000C94D0000C94D0000C94D0000C94D000F0
:100050000C94D000303132333435363738394142A0
:100060004344454631573A5257313939302D57526A
:100070003A5A45524F530D0A0031573A52573139C7
:1000800039302D57523A5245533D0031573A525765
:10009000313939302D57523A4E45573A000D0A0D35
:1000A0000A5257313939303A53544152540D0A00EB
:1000B00031573A52455345543D300D0A003A4552A6
:1000C0003A003A4F4B0031573A524541442D524F76
:1000D0004D3A0031573A52455345543D310D0A00CF
:1000E00031573A524541442D524F4D0D0A00315778
:1000F0003A52455345543D300D0A003A45523A00B4
:100100003A4F4B0031573A5343414E3A0031573A38
:1001100052455345543D310D0A0031573A5343413E
:100120004E0D0A005645523A31574C49423D303344
:100130003A53573D30310D0A00434D443A733D73F5
:1001400063616E3A723D72656164524F4D3A6E580A
:1001500058383D7365744E6577524F4D3A6D3D503A
:1001600072696E744E6577524F4D3A773D7772697A
:1001700074654E6577524F4D0D0A000011241FBE65
:10018000CFE5D8E0DEBFCDBF20E0A0E6B0E001C003
:100190001D92A338B207E1F70E949B040C9454050A
:1001A0000C940000882379F08F9A97988AE28A95B8
:1001B000F1F700C08F98979A8FE191E00197F1F7DE
:1001C00000C0000008958F9A97988FE191E0019701
:1001D000F1F700C00000979A8F989AE29A95F1F78C
:1001E00000C0089597988F9A85E08A95F1F70000EE
:1001F0008F9895E09A95F1F7000081E0879B80E069
:10020000809360008FE391E00197F1F700C0000058
:10021000879BFECF80916000089598E038E1282FF9
:10022000262720FD02C0669503C063276695606897
:1002300086959150A1F7862F08958F98979A0895E3
:100240008F9A97988FEC97E00197F1F700C0000024
:100250008F98979AEFE8F1E03197F1F700C000002E
:1002600080B3881F8827881FEFECF7E03197F1F7FC
:1002700000C00000EFECF7E03197F1F700C000009C
:10028000879BFECF0895CF93DF93D82FC8E08D2FA3
:1002900081700E94D200D6958AE08A95F1F700C05D
:1002A000C150A9F7DF91CF910895CF93DF93D8E0A4
:1002B000C0E0C6950E94F2008111C0688AE08A956C
:1002C000F1F700C0D150A9F78C2FDF91CF9108959D
:1002D000BF92CF92DF92EF92FF920F931F93CF9333
:1002E000DF93E82E8B010E942001D82E81112BC0B4
:1002F00080EF0E944301C12CC0E4BB24B3940F2EB5
:10030000F8EFFF2EF02DFC0E0E94F200D82F0E9475
:10031000F200882319F0DD23C1F02DC0D11122C0D5
:10032000CE15D8F0F801808180FF0FC0CE1118C023
:100330000CC0C150FC12E8CF0F5F1F4FCF2DF11042
:10034000DECFDC2C18C0D12C16C080E00E94D20079
:10035000F801808186958083ECCFCC2EDB2D02C006
:10036000CC2EDB2D8D2F0E94D200F8018081869546
:1003700080688083DECF8D2DDF91CF911F910F910B
:10038000FF90EF90DF90CF90BF9008959F92AF9233
:10039000BF92CF92DF92EF92FF920F931F93CF9372
:1003A000DF93CDB7DEB728970FB6F894DEBF0FBE48
:1003B000CDBF7C01FC018081813031F081E0808300
:1003C0006894992491F801C0912C6701F7E0CF0E51
:1003D000D11C870180E0682FF80181918F010E9474
:1003E0000D010C151D05B9F7F7019781891721F04B
:1003F0008783F92DF1609F2E0E942001811174C026
:1004000085E50E94430184E190E00E949C020E94E5
:100410002001811165C085ED0E94430157016701EC
:1004200088E0C80ED11CF70101917F0118E000FFA0
:100430000EC08F9A97988FEE90E00197F1F700C069
:1004400000008F98979A90E19A95F1F70DC08F9AD6
:100450009798E0E1EA95F1F78F98979A8FEE90E000
:100460000197F1F700C0000006958AE090E00E9435
:100470009C021150E1F6EC14FD04A9F684E690E02C
:100480000E949C020E942001811126C083E30E94E9
:1004900043018E010F5F1F4F6E0199E0C90ED11C01
:1004A00078010E945501F70181937F01CE16DF0686
:1004B000C1F721E030E0F50191915F01F8018191F0
:1004C0008F019813232F0C151D05A9F721110FC0BB
:1004D000F92DF0699F2E0BC0892D8868982E07C0D2
:1004E000992D9468992E03C0E92DE0689E2E892DE0
:1004F00028960FB6F894DEBF0FBECDBFDF91CF9127
:100500001F910F91FF90EF90DF90CF90BF90AF9031
:100510009F900895009779F000000000000000000F
:1005200000000000000000000000000000000000CB
:100530000000019789F70895CF93DF93EC01892B91
:1005400031F083EE93E00E948A022197D1F7DF9188
:10055000CF91089589B99F7090BD862F83708BB914
:10056000687F6AB9406840BD08955D9BFECF8CB935
:100570000895CF93DF93EC012196FC0184918823A9
:1005800039F00E94B502FE01849121968111F9CFC4
:10059000DF91CF910895CF93C82FE82FE295EF70A8
:1005A000F0E0EC5AFF4F84910E94B502CF70EC2F1F
:1005B000F0E0EC5AFF4F84910E94B502CF9108956C
:1005C000E3E6F0E08BE790E01192E817F907E1F736
:1005D00010926100089590ED980F9A3060F09FEBB3
:1005E000980F963010F4875308959FE9980F96302E
:1005F00020F487550895892F08958FE008958DE0A0
:100600000E94B5028AE00E94B5020895DF92EF923F
:10061000FF920F931F93CF93DF93809163008337F3
:1006200021F481E080936200A6C0823721F482E049
:1006300080936200A0C08E3609F045C00E94B502CA
:1006400003E610E00F2EFBE7EF2EF0E0FF2EF02D7B
:10065000D0E0D12CF80181810E94EB02C82FF80173
:1006600082810E94EB02F0E1CF9F900111248F70F4
:10067000C82FC22BF701C1937F01D73028F46D2D0D
:100680008C2F0E940D01D82E8C2F0E94CB02DF5F91
:100690000E5F1F4FD830F1F68AE30E94B5028091B9
:1006A0008200D81204C081E30E94B50209C080E331
:1006B0000E94B5028AE30E94B5028D2D0E94CB02F2
:1006C0000E94FF0258C08D3669F50E94B5020BE703
:1006D00010E0C0E0F12CF801D1918F01C73028F46F
:1006E0006F2D8D2F0E940D01F82E8D2F0E94CB02B1
:1006F000CF5FC83081F78AE30E94B5028091820003
:10070000F81204C081E30E94B50209C080E30E9490
:10071000B5028AE30E94B5028F2D0E94CB020E948F
:10072000FF0229C08737E9F40E94B502EBE7F0E049
:1007300023E830E090E08191811101C09F5FE217D2
:10074000F307C9F7963038F481E30E94B50280EFD1
:100750008093620003C080E30E94B5020E94FF0202
:100760000AC08F3341F489E391E00E94B90284E228
:1007700091E00E94B9020E94E002DF91CF911F91A7
:100780000F91FF90EF90DF900895CF92DF92EF925C
:10079000FF920F931F93CF93DF93CDB7DEB72897C8
:1007A0000FB6F894DEBF0FBECDBF8AE191E00E9484
:1007B000B9020E942001811141C08DE091E00E94A8
:1007C000B902DD24DA94C12CBE016F5F7F4F8D2DFD
:1007D0000E946801D82E84E091E00E94B9028D2D1C
:1007E0000E94CB028AE30E94B502CE0101967C01F1
:1007F00010E00C2D173030F4602FF70180810E943B
:100800000D01082FF70181917F010E94CB021F5F2C
:10081000183081F78885081305C080E091E00E94B8
:10082000B90207C08BEF90E00E94B902802F0E94AE
:10083000CB020E94FF02D110C7CF04C08EEE90E021
:100840000E94B90228960FB6F894DEBF0FBECDBF46
:10085000DF91CF911F910F91FF90EF90DF90CF909C
:100860000895CF92DF92EF92FF920F931F93CF9351
:10087000DF93CDB7DEB728970FB6F894DEBF0FBE73
:10088000CDBF80EE90E00E94B9020E94200181114C
:100890003FC083ED90E00E94B90283E30E944301D0
:1008A000CE0101967C016E0199E0C90ED11C870131
:1008B0000E945501F80181938F01CE16DF06C1F722
:1008C00086EC90E00E94B90210E000E0173030F4AE
:1008D000602FF70180810E940D01082FF70181919F
:1008E0007F010E94CB021F5F183081F788850813B3
:1008F00005C082EC90E00E94B90207C08DEB90E049
:100900000E94B902802F0E94CB020E94FF0204C005
:1009100080EB90E00E94B90228960FB6F894DEBFF3
:100920000FBECDBFDF91CF911F910F91FF90EF9040
:10093000DF90CF90089583E087BBC098C1980BE704
:1009400010E0C3E8D0E0F8011192CE17DF07E1F71D
:100950000E941D01789446E068E989E190E00E94D8
:10096000AA028DE990E00E94B902C09A82E390E069
:100970000E949C02809161008E3F11F40E94060348
:1009800080916200882309F447C080916200813021
:1009900019F40E94C5033EC080916200823019F4B0
:1009A0000E94310437C080916200803F99F5F801C0
:1009B00090E08191811101C09F5FCE17DF07C9F7D9
:1009C000963020F58BE890E00E94B9027801F7019B
:1009D00081917F010E94CB02CE15DF05C1F70E94F5
:1009E000FF02C19A8BE790E00E94C601F82E89E7CA
:1009F00090E00E94B9028F2D0E94CB020E94FF025C
:100A000082E390E00E949C02C19804C084E690E0DA
:100A10000E94B902109262000E942001811104C05C
:100A200084E690E00E949C02C0988EE591E00E94CE
:100A30009C029BCF1F920F920FB60F9211242F93FF
:100A40003F934F935F936F937F938F939F93AF9356
:100A5000BF93EF93FF938CB18D3021F48EEF809391
:100A6000610011C08B3119F40E94E0020CC090911A
:100A70006100983140F4E92FF0E0ED59FF4F808399
:100A80009F5F90936100FF91EF91BF91AF919F9114
:100A90008F917F916F915F914F913F912F910F9027
:0C0AA0000FBE0F901F901895F894FFCF28
:00000001FF
